:100000000C94121A0C94431A0C94431A0C94431A2D
:100010000C94431A0C94431A0C94431A0C94431AEC
:100020000C94431A0C94431A0C94431A0C94431ADC
:100030000C94431A0C94431A0C94431A0C94431ACC
:100040000C94431A0C94431A0C94431A0C94431ABC
:100050000C94431A0C94431A0C94431A0C948C3449
:100060000C94431A0C9463310C9439310C94431A58
:100070000C94431A0C94431A0C94431A0C94431A8C
:100080000C94431A0C94431A0C94431A0C94431A7C
:100090000C94431A0C94431A0C94431A0C94422B5C
:1000A0000C94431A0C94431A0C94431A0C94431A5C
:1000B0000C94431A0C94431A0C94431A0C94431A4C
:1000C0000C94431A0C94431A0C94431A0C94431A3C
:1000D0000C94431A0C94431A0C940F310C94E53091
:1000E0000C94431A0436063608360A360C360E3699
:1000F00010361C36BC33BF33AE33B233B633F633AF
:10010000C333C733CD33D133D533DB33DF33E333BD
:10011000F633E933ED33F1330C94242D0C94D12CC8
:100120000C94A41A0C9400200C940C360C940E36EB
:100130000C943B1B0C94EE280C947A1A0C94D22845
:100140000C94DF330C94E3330C946E3A0C94382DFA
:100150000C947F220C941C360C9410360C943E3078
:100160000C94BF330C9408360C94462D0C947822D2
:100170000C948B1A0C94EC200C94BC330C94E62851
:100180000C94B6200C94252E0C94C7330C941E2985
:100190000C94AE330C94152D0C94A11A0C94451AA2
:1001A0000C94CD330C94B6330C94872D0C94F1330E
:1001B0000C943B1F0C94AB1A0C9406360C946E2EC8
:1001C0000C94821B0C94F6330C94D5330C94CE2DE6
:1001D0000C94D1330C94FC210C94C2280C9404365A
:1001E0000C94E9330C94B2330C94AF1B0C94B11AF9
:1001F0000C94131D0C940A360C94ED330C94841A51
:100200000C946D3A0C94DB330C945C1A0C94C32858
:100210000C94AD1A0C94FD210C94B21A0C94C333B7
:100220000C944A1A0C94AE1A41542B43495053541F
:100230004152543D25642C22554450222C222573D2
:10024000222C302C25752C320041542B434950432D
:100250004C4F53453D25640025642E25642E2564AE
:100260002E25640044617461207061636B657420A5
:1002700073656E64206572726F72202832290044A3
:10028000617461207061636B65742073656E6420B6
:100290006572726F72202831290041542B434950F6
:1002A00053454E443D25642C25752C222573222C64
:1002B00025750054494D454F55543A005461672007
:1002C000434C4F534544206E6F7420666F756E64C7
:1002D00000456E6420746167206E6F7420666F75D0
:1002E0006E64004E6F2074616720666F756E6400E7
:1002F0003E3E3E2054494D454F5554203E3E3E0023
:1003000015EF03038002CF0300C130ED0464031234
:1003100081E803850078CB05392C003402F70120F1
:10032000EA020000C00123C10110C5023E28C70136
:10033000863601483A0155B1020018B603088227F3
:10034000F20100260101E00F0F312B0C0E084EF1D7
:10035000370710030E0900E10F000E1403110731D7
:10036000C148080F0C31360F118078290000002099
:10037000002300260029002C002F0032000001007D
:10038000000301060109010D0A0053444B20766564
:100390007273696F6E3A0041542B474D52004154BD
:1003A0002B4357444843503D312C310041542B439B
:1003B000574155544F434F4E4E3D300041542B430F
:1003C000495044494E464F3D310041542B4349501A
:1003D0004D55583D310041542B43574D4F44453DF9
:1003E0003100415445300041542B52535400496E62
:1003F0006974696C697A6174696F6E20737563637F
:1004000065737366756C202D005761726E696E6737
:100410003A20556E737570706F72746564206669EA
:10042000726D776172650043616E6E6F7420696EE4
:10043000697469616C697A6520455350206D6F64F9
:10044000756C6500415400496E697469616C697A24
:10045000696E6720455350206D6F64756C65000DA3
:100460000A005354415455533A0041542B434950C8
:1004700053544154555300436F6E6E656374656405
:1004800020746F004661696C656420636F6E6E65F1
:100490006374696E6720746F0041542B43574A415F
:1004A000505F4355523D222573222C222573220092
:1004B0002D2D2D2D2D2D2D2D2D2D2D2D2D2D2D2D6C
:1004C0002D2D2D2D2D2D2D2D2D2D2D2D2D2D2D2D5C
:1004D0002D2D2D2D003133206D730054696D696E03
:1004E000673A20202020202020004175746F0047AB
:1004F00061696E3A202020202020202020002D2D10
:100500002D2D2D2D2D2D2D2D2D2D2D2D2D2D2D2D1B
:100510002D2D2D2D2D2D2D2D2D2D2D2D2D2D2D2D0B
:100520002D2D002D2D2D2D2D2D2D2D2D2D2D2D2D28
:100530002D2D2D2D2D2D2D2D2D2D2D2D2D2D2D2DEB
:100540002D2D2D2D2D2D2D00206C757800526573CD
:100550006F6C7574696F6E3A20202000206C75787E
:10056000004D696E2056616C75653A202020200090
:10057000206C7578004D61782056616C75653A2065
:1005800020202000556E697175652049443A20206D
:10059000202000447269766572205665723A2020E8
:1005A000200053656E736F723A2020202020202097
:1005B000002D2D2D2D2D2D2D2D2D2D2D2D2D2D2D98
:1005C0002D2D2D2D2D2D2D2D2D2D2D2D2D2D2D2D5B
:1005D0002D2D2D2D2D004F6F6F70732C206E6F20E1
:1005E00054534C32353631206465746563746564E8
:1005F000202E2E2E20436865636B20796F75722044
:10060000776972696E67206F7220493243204144D6
:10061000445221005769466920736869656C6420FB
:100620006E6F742070726573656E74003232323290
:1006300032323232323232323232323232003131CE
:100640003131313131313131313131313100536575
:100650006E736F72206F7665726C6F6164007F1FBE
:100660008207840684068407827F188207840684B2
:10067000068407827F20278E0F900D920D900180B7
:100680000881018E01820683108404850E8504850D
:100690000E8504850E8504850E8504850E850485EA
:1006A0000E8504850E8504850E8504850E850485DA
:1006B0000E8504850E8504850E8504850E850484CB
:1006C00010840482028E02820480029202800696C6
:1006D00009940C9002811B83198519851985198548
:1006E000198519851985198519851985198519851A
:1006F000198519851A830B8E01810B900D920D902F
:100700000F8E28278E0F900D920D90018008810189
:100710008E01820683108404850E8504850E85046F
:10072000850E8504850E8504850E8504850E850459
:10073000850E8504850E8504850E8504850E850449
:10074000850E8504850E8504850E85048410840439
:1007500082028E0282048002920280069606800146
:10076000940782019002810484118304850E85041C
:10077000850E8504850E8504850E8504850E850409
:10078000850E8504850E8504850E8504850E8504F9
:10079000850E8504850E8504850E8504850E8504E9
:1007A000850E85058310830781018E01810B900DD5
:1007B000920D900F8E28278E0F900D920D90018034
:1007C0000C8E01821B841985198519851985198557
:1007D0001985198519851985198519851985198529
:1007E0001A841C821E805D811B83198519851985D9
:1007F0001985198519851985198519851985198509
:100800001985198519851A831C817F24278E0F90DD
:100810000D920D900B81018E0B831A851985198518
:1008200019851985198519851985198519851985D8
:100830001985198519841A82028E0A8002920A96F5
:10084000068001940782019002810484118304854B
:100850000E8504850E8504850E8504850E85048528
:100860000E8504850E8504850E8504850E85048518
:100870000E8504850E8504850E8504850E85048508
:100880000E8504850E85058310830781018E018105
:100890000B900D920D900F8E28278E0F900D920DBC
:1008A000900B81018E0B831A85198519851985197D
:1008B0008519851985198519851985198519851948
:1008C0008519841A82028E0A8002920A9609940C73
:1008D0009002811B83198519851985198519851938
:1008E0008519851985198519851985198519851918
:1008F000851A830B8E01810B900D920D900F8E281F
:100900007F1980088112820683108404850E850475
:10091000850E8504850E8504850E8504850E850467
:10092000850E8504850E8504850E8504850E850457
:10093000850E8504850E8504850E8504850E850447
:100940008410840482028E02820480029202800655
:100950009609940C9002811B8319851985198519B4
:100960008519851985198519851985198519851997
:1009700085198519851A831C817F24278E0F900D78
:10098000920D9001800C8E01821B841985198519A6
:100990008519851985198519851985198519851967
:1009A00085198519851A840A8E02820892028006AA
:1009B0009609940C9002811B831985198519851954
:1009C0008519851985198519851985198519851937
:1009D00085198519851A830B8E01810B900D920D57
:1009E000900F8E28278E0F900D920D9001800C8E07
:1009F00001821B8419851985198519851985198521
:100A000019851985198519851985198519851A84F6
:100A10000A8E02820892028006960680019407825E
:100A2000019009841A8519851985198519851985F3
:100A300019851985198519851985198519851985C6
:100A40001A831C81018E0F900D920D900F8E287FBE
:100A500019801D821B8419851985198519851985A9
:100A60001985198519851985198519851985198596
:100A70001B831D811E805D811B8319851985198546
:100A80001985198519851985198519851985198576
:100A90001985198519851A831C817F24278E0F904B
:100AA0000D920D9001800881018E018206831084D1
:100AB00004850E8504850E8504850E8504850E85C6
:100AC00004850E8504850E8504850E8504850E85B6
:100AD00004850E8504850E8504850E8504850E85A6
:100AE00004850E8504841084048214820480188096
:100AF00024801E8215810484118304850E8504855B
:100B00000E8504850E8504850E8504850E85048575
:100B10000E8504850E8504850E8504850E85048565
:100B20000E8504850E8504850E8504850E85048555
:100B30000E85058310830781018E01810B900D9234
:100B40000D900F8E287F7F7F7B820784068406842A
:100B50000782107F7F7F7F3F7F7F10860C83028B11
:100B60000983018D0883008F07880586068609841E
:100B700006850B8405840D8305840D8305840D840F
:100B800004830F8304830F8304830F8304830F8301
:100B900004830F8304830F8304830F8304830F83F1
:100BA00004830E8404840D8305840C8405850B84E2
:100BB00005860984068805860683008F0783018DD4
:100BC0000883028B098304860C8318831883188397
:100BD000188318831883188318831883327F7F7FC4
:100BE000058607860A830289048A0883008C028CA2
:100BF0000783008D008E0687058905840685088693
:100C0000088405840A840A8305840A840A83058388
:100C10000B830B8305830B830B8305830B830B8370
:100C200005830B830B8305830B830B8305830B8366
:100C30000B8305830B830B8305830B830B83058356
:100C40000B830B8305830B830B8305830B830B8340
:100C500005830B830B8305830B830B8305830B8336
:100C60000B8305830B830B8305830B830B83058326
:100C70000B830B8305830B830B8305830B830B8310
:100C80007F7F7F7A7F7B880F8D0A90099107850689
:100C90008506840A8405830C8305830C8305830CF5
:100CA00083168315840E8B09900792068D018305A8
:100CB00088078305840B8304840C8304830D8304D9
:100CC000830D8304830C8404830B850484098605C7
:100CD00084068A038F0184048D0284058A058307B4
:100CE000867F7F357F1A8409840984098409847F7B
:100CF0003D8409840984098409847F7422880F8CC7
:100D00000C8F0991078605860585098405840B8467
:100D100004830D8303840D8303830F8302830F8376
:100D200002830F8302830F8302830F8302840D8467
:100D300003830D8403840B85048409860486058857
:100D40000594068E0083078B02830A86048316832C
:100D50001583168303830E8303830D8403840C831E
:100D600005830B84058409850685058608900A8E0F
:100D70000C8B11867F7F332485118B0C8F09910793
:100D80008605860684098405840B8404840B840408
:100D9000830D8304830D8304830D8304840B8405F6
:100DA000830B830684098407850585098F0B8D0BCA
:100DB0008F09910785078505840B8404830D8303C0
:100DC000840D8402830F8302830F8302830F8302C7
:100DD000830F8302830F8302840D8402840D8403B6
:100DE000840B840486078605930791098F0D897FFC
:100DF0007F313796039603960396168315831583E2
:100E0000158315841484148415831584148415841F
:100E1000148415831584158315841584158315840E
:100E200015831683158415831683168316831584FC
:100E30001583168316837F7F532486118B0C8E0AAD
:100E400090088605850685098405840B8305830C37
:100E50008403840D8303830E830383168315831613
:100E60008304860A83028B0783008E069405880517
:100E7000860486098404850B8403840D8303840D12
:100E80008402830F8302830F8302830F8302830F05
:100E90008302830F8303830D8403830D8304840BF8
:100EA0008405840985058605860791098F0C8C0FBA
:100EB000887F7F313A9108910891089108821683C2
:100EC00016831683168217821782168302870B8376
:100ED000008B09910892078605860684098505839B
:100EE0000B84168316841683168316831683168343
:100EF00003830E8303830D8403830D8304840B8497
:100F000005840985058605860791098F0B8D0F8756
:100F10007F7F3245831584148513861386128711CB
:100F200083008311830083108301830F8302830E68
:100F30008402830E8303830D8304830C8305830B58
:100F40008405830B8306830A830783098407830947
:100F50008308830883098307830A8307970297021C
:100F600097029711831683168316831683168316AA
:100F700083168316837F7F4A23870F8D0B900891FA
:100F8000078605860684098405840B8404840B8403
:100F900004830D8304830D8304830D8315841584DA
:100FA000148414850D8B0E89108B0E8C1486158479
:100FB0001684158402830F8302830F8302830F83B9
:100FC00002840D8402840C8503840B8404850985C6
:100FD000058605860791098F0B8D0F877F7F4D242E
:100FE00087108C0B8F099108850586068409840675
:100FF000840A8306830B8404840C8304830D830496
:10100000830D8304830D831683158415841484143F
:1010100085138512861187108810880F8810871114
:1010200086128513851484148415831683159603FC
:1010300096039603967F7F4529821782168316832F
:101040001584148512870D8C0D8C0D8700830D84FB
:1010500003831683168316831683168316831683DB
:1010600016831683168316831683168316831683B8
:1010700016831683168316831683168316831683A8
:1010800016837F7F4C23870F8D0B8F099107860571
:10109000860684098406830B8305840B8404830DF0
:1010A0008304830D8304830D8303830F8302830FE3
:1010B0008302830F8302830F8302830F8302830FD4
:1010C0008302830F8302830F8302830F8302830FC4
:1010D0008302830F8302830F8302830F8302830FB4
:1010E0008303830D8304830D8304830D8304840BA6
:1010F0008405830B83068409840686058607910987
:101100008F0B8D0F877F7F327F7F7F558409840906
:1011100084098409847F387F7F458A058A058A058A
:101120008A7F7F7F2B7F7F7F7F3F1911830981011A
:10113000810781038203800080068101810080078E
:10114000837F7F2C01830A820A810A810A810A81B6
:101150000A810A810A810A810A810B810B82088136
:1011600009810A810A810A810A810A810A810A8128
:101170000A81098207831304810A810A810A810A8C
:10118000810A810A810A810A810A810A810A810A07
:10119000810A810A810A810A810A810A810A810AF7
:1011A000810A810A810A810A8112068307820981E4
:1011B0000A810A810A810A810A810A810A810A81D7
:1011C000098108820B810B810A810A810A810A81C7
:1011D0000A810A810A810A810A820A830E488901EA
:1011E00089088207820782078208810882078207AE
:1011F00082078208890189544D8206820081068116
:1012000001810681028104810381048103810481BB
:1012100004810281058102810581028106810081AC
:101220000781008107810081088209820982098182
:10123000098206840783144E81068101820482029A
:10124000810481048102810582008206840882086B
:101250008406820082058102810481048102820465
:1012600082018106815B6B8104820481008104829A
:101270000481008104800080048101810281008159
:10128000028102810281008102810281028100814A
:101290000281028102800280028103810081028139
:1012A000008104810081028100810481008102812A
:1012B00000810582048206820482068204827F0104
:1012C00047810681008106810181048102810481B8
:1012D00002810481038102810481028104810281EF
:1012E00005810081068100810684078208825855A5
:1012F00081068102810681028106810281068102C6
:1013000081068102810681028106810281068102B5
:1013100081068102810582028203830386008104A3
:10132000840181620F81048104810481028500852A
:101330000281048104810481048104810481048187
:10134000048104830382314A840587028203810277
:1013500081058101810A840786078409810181054D
:1013600081018203820287048556318100820185D2
:101370000182048105810581058105810581058141
:101380000581058105813B5E83018104860081031F
:101390008301840381058202820681028107810222
:1013A0008107810281078102820681038105820310
:1013B00083018404860081068301810C810C810CE9
:1013C000810C810C811F5B8101830681008604846E
:1013D00001830382058103810682028107810281E4
:1013E00007810281078102810682028205810384CE
:1013F0000183038100860481018306810C810C81B5
:101400000C810C81285E8407880483028303810693
:10141000810282068201810881018108810181089F
:101420008101820682028106810383028304880788
:10143000846D5B81018405810086048303820382BD
:101440000581038106810381068103810681038171
:101450000681038106810381068103810681038160
:101460000681038106816A7F0581018303830581EB
:101470000085008604830284028203820482048140
:101480000381058105810381058105810381058132
:101490000581038105810581038105810581038122
:1014A0000581058103810581058103810581058110
:1014B0000381058105817F1B0781038103810381EE
:1014C00003810381038103810381038103810381FC
:1014D0000381038103810381038103812B19810926
:1014E00081098109810981048201810382028102CB
:1014F00082038101820481008205850586048201C0
:1015000081048102820381038103810382028104B9
:101510008102810482530781038103810F8103814A
:10152000038103810381038103810381038103819B
:10153000038103810381038103810381038101838B
:101540000182080781038103810F810381038103E5
:10155000810381038103810381038103810381036B
:101560008103812B10810C810C810C810C810C81F9
:10157000018405810086048303820382058103813F
:10158000068103810681038106810381068103812F
:10159000068103810681038106810381068103811F
:1015A00006816A5E830181048600810383018403CE
:1015B0008105820281078102810781028107810200
:1015C00081078102820681038105820383018404ED
:1015D000860081068301810C8102810781028106D8
:1015E000820382038204890685130A8302840281AE
:1015F00005810581038600860281058105810581BB
:1016000005810581058105810581058105813B589D
:101610008307870483018303810581028206810198
:101620008B018B01810B820B810582028301830474
:101630008707836619810C810C810C810C810683DC
:101640000181048600810383018403810582028273
:10165000068102810781028107810281078102825E
:101660000681038105820383018404860081068349
:1016700001816A5283068703830182038105810108
:101680008209810A810A810A82058102810581021B
:10169000830182048706835E10810C810C810C819A
:1016A0000C810C81018306810086048401830382FE
:1016B00005810381068202810781028107810281FF
:1016C00007810281068202820581038401830381EE
:1016D0000086048101836D57850588048104820397
:1016E0008105810B810587038902820581028106BC
:1016F00081028106810282038303860083028402C1
:1017000082610B8303850182018200810381008154
:10171000038100820182018503837F1A7F7F1D8CF4
:1017200026108207810081058102810381048101E5
:101730008106817F6F098403840681068106810604
:101740008106810681068106810681068106810661
:101750008106810681068106810681068106810354
:101760008403841401800B800B810B800B800B8120
:101770000B800B800B810B800B800B810B800B800F
:101780000B810B800B800B810B800B800B810B80FE
:101790000B800B810B800E0B840384038106810672
:1017A0008106810681068106810681068106810601
:1017B00081068106810681068106810681068106F1
:1017C000810684038412118C028C0C820B820B82A2
:1017D0000C810C810C820B820B820C810C810C829F
:1017E0000B820B820B820C8D018D700F820982009F
:1017F00082078202810781038205820481058106B6
:1018000081038107820182088101810A830B830C95
:10181000810D810D810D810D810D810D810D8176EF
:101820000F81088101820682028106810481048180
:1018300005820282068102810881008109840A8270
:101840000B820A8100810882008207810281068161
:10185000048104820482038106810282068200825E
:10186000088268168206820682008106820681014D
:101870008106820681018204810081048202810442
:10188000810081048103810481008104810381043A
:10189000810081048103820281028102820481022B
:1018A000810281028105810281028102810581021A
:1018B000810281028105820081048100820681000B
:1018C00081048100810781008104810081078100FA
:1018D00081048100810783068308820682098206CB
:1018E000827F250E820882008108810181088101A2
:1018F00081088102810681038106810381068104BA
:1019000081048105810481058104810681028107AA
:10191000810281078102810881008109810081099A
:10192000840A820B826E13810981038109810381FC
:10193000098103810981038109810381098103816F
:10194000098103810981038109810381098103815F
:10195000098103810981038109810381098103824E
:10196000078204820582068908877F020D9B058114
:101970000B810B810B810B810B810B810B810B8107
:101980000B810B810B810B810B810B810B81671408
:10199000850789048205820381078103810781030A
:1019A00081078202820D840B860B850C830D8201D8
:1019B00082088102810881028108810283058203F5
:1019C0008A068673128B048C038108820281098146
:1019D00002810981028109810281098102810881D4
:1019E000038C038B048107820381088103810882B1
:1019F00002810981028109810281098102810981B3
:101A000002810981771886098A0683048304820883
:101A10008203810A8102820A8201810C8101810C88
:101A20008101810C8101810C8101810C8101810C7A
:101A30008101820680028202810582018103820582
:101A40008504830483068C07860182108073118AC3
:101A5000048B03810782028108810281088102814F
:101A600008810281088102810782028B038A048136
:101A70000D810D810D810D810D810D810D817B18F1
:101A800086098A068304830482088203810A81020C
:101A9000820A8201810C8101810C8101810C81010A
:101AA000810C8101810C8101810C8101820A8202F9
:101AB000810A810382088204830483068A09867F5F
:101AC0000A13820881038208810383078103840645
:101AD00081038100810681038100820581038101E8
:101AE00082048103810281048103810282038103D4
:101AF00081038202810381048102810381048201C6
:101B000081038105820081038106810081038106B2
:101B1000840381078303810882038108827F168200
:101B20000A82038308830383088303830883038172
:101B3000008106810081038100810681008103818B
:101B4000008106810081038101810481018103817B
:101B5000018104810181038101810481018103816B
:101B6000028102810281038102810281028103815B
:101B7000028102810281038103810081038103814B
:101B80000381008103810381038403810381048233
:101B900004810381048204817F140E810A810A81F9
:101BA0000A810A810A810A810A810A810A810A81DD
:101BB0000A810A810A810A810A810A8A018A5A12E3
:101BC00081088202810782038106820481058205E1
:101BD00081048206810382078102820881018209D1
:101BE00081008309870883018207820382068105B9
:101BF00081068105820581068204810782038108AE
:101C000082028109827615810A810A810A810A810C
:101C10000A810A810A810A810A810A810A81018175
:101C20000681018106810181068101820482028888
:101C300004865E078103810381038103810381039D
:101C40008103810381038103810381038103810374
:101C5000810381038103812B138109810381098120
:101C6000038109810381098103810981038109813C
:101C700003810981038D038D03810981038109811A
:101C8000038109810381098103810981038109811C
:101C90000381098103810981038109817F188609F4
:101CA0008A06820583048208810481098202820FE8
:101CB000811081108105870281058702810B8102D5
:101CC000810B8102820A81038109820382078304D6
:101CD00083048405890081078503807F06108B02B9
:101CE0008B02810C810C810C810C810C810C8A038C
:101CF0008A03810C810C810C810C810C810C810C7C
:101D00008173118C028C02810D810D810D810D81F9
:101D10000D810D8B038B03810D810D810D810D8153
:101D20000D810D8C028C701389078B05810683044D
:101D3000810882038109810381098202810A81026B
:101D4000810A8102810A8102810A8102810A81025B
:101D5000810A81028109820281098103810882034B
:101D6000810683048B05897F031786088A0583040F
:101D7000830382088103810A8101820A8101810F24
:101D8000810F810F810F810F810B8101820A8102F6
:101D90008109820282088104830483058A08867F80
:101DA00002128A058C03810782038108810381085E
:101DB00081038108810381088103810782038A05E9
:101DC0008C038107820381098102810981028109D3
:101DD000810281098102810782038C038A7A15833B
:101DE0000B830B830A8101810981018109810181B2
:101DF00008810381078103810781038106810581B1
:101E0000058105810589048B038107810381078191
:101E10000281098101810981008209826F21880D77
:101E200082068209820A8107810D8105810F810462
:101E30008006830180038102810481028303810281
:101E40008103810481048101810481048104810171
:101E50008103810581048101810381058104810160
:101E60008103810481048102810381048104810250
:101E7000810381048103810481038102820281053F
:101E800081048301840781178117810B81098205F1
:101E9000830D876C1085048803820382018205818B
:101EA00001810681018106810982088208820882F7
:101EB0000981098209822382098209825F62820C78
:101EC000820C830C820D8108820783078208827F3F
:101ED000155186018613860186636B82088207830B
:101EE000078208810D820D820C820C827F0C2B826E
:101EF000038203823482038203820580048104808A
:101F00000481172B8203820382348203820382328C
:101F10001F85058804820382028205810281078170
:101F20000181078101810781018205820282038389
:101F3000028A048401810B8101810681028106816C
:101F40000381048203880586652083078705810352
:101F50008104810581038105810381058104810359
:101F60008106850687048203820281078101810739
:101F70008101810781018107810282038203890532
:101F800085651C8B018B0A810A8209820A810A827B
:101F90000A810A810B810A820A810B810B810A81E5
:101FA0000B810B81692084068803820481038106EA
:101FB000810281068101810B810184048A028303ED
:101FC00082028205820181078101810781018107E7
:101FD00081028105820282038204880585651D894C
:101FE000038903810B810B810B81008405890283A6
:101FF0000382028106820B810B810B8101810781A3
:102000000182058202820382038905856524810A93
:102010008209830983088100810781018106810289
:102020008106810281058103810481048103810588
:1020300081038B018B09810B810B810B81641F85CF
:1020400006870482038203810581028205810B8158
:102050000A82078408850B820B8101810781018137
:102060000781018205820282038203890585651F3B
:10207000850589038203820282068101810781012D
:102080008107810B810A82088307840684078308FD
:102090008209820A810B8B018B6222810B810A8269
:1020A000078507850B810B810B810B810B810B81D0
:1020B0000B810B810B810B810B810B8166208307C8
:1020C00087048301830381058102820582018107E0
:1020D00081018107810181078101810781018107D8
:1020E00081018107810181078101820582028105C9
:1020F000810383018304870783660D810581058041
:1021000005810581058005810581058005810581A1
:102110000580058105810580058105810580058192
:1021200005812D7182038203823258850185687191
:102130008203820382058004810480048117538115
:102140000781078104870187048107810781671060
:102150008109810981068001810180028903850648
:10216000830681018104820182048003807F360717
:10217000810680068106800681058105810681052C
:10218000810581058105810581058105810581051F
:102190008104810581058105800581058005810D0A
:1021A0000D810580058105800581058105810481FA
:1021B00005810581058105810581058105810581EF
:1021C00005810681058105810680068106800681DC
:1021D00007068202820282048003810281741584D0
:1021E0000A860882028207810481078104810781AF
:1021F0000382088101820A840A830B85038103829A
:1022000001820281028203820181028105840381AD
:102210000683038107810482048503880182038584
:102220000482762D8207810586058006810281045D
:102230008105810481028106810481028007810475
:10224000810181088102810280098601800C82025D
:102250008102820C8001860980028102810881014D
:102260008104810780028104810681028104810545
:102270008104810281068005860581078207807FAF
:102280000C1F850589038203820281078101810772
:102290008101810B820B810A8707810B810B810BE6
:1022A000810A810B860280018B01810483632E8168
:1022B00001810C8002800D8002800C8101810C80E4
:1022C00002800D800280088D088002800D800280CF
:1022D0000D800280088D088002800D8002800C81B4
:1022E00001810C8002800D8002800C8101817F0DB4
:1022F00009800180038001800380018003800180C8
:102300000380018003800180038001807F110A81A6
:10231000058105810581058105810581058105818D
:1023200005810581058105811581058105813A7F3A
:1023300001000030484830000000000000000000AC
:1023400000000000324C000000000000000000000F
:1023500000004020202020202010202020202020AD
:1023600040000040404040404040404040404040ED
:10237000000010202020202020402020202020208D
:1023800010000000000000FC0408304080FC000049
:102390000000000000000084848484844C3404081D
:1023A00070000000000000888850205088880000DD
:1023B000000000000000008282829292AA44000085
:1023C0000000000000000082828282442810000089
:1023D0000000000000000084848484844C340000E9
:1023E00000000000004040E040404040403000001D
:1023F00000000000000000708880700888700000F5
:1024000000000000000000B0C880808080800000D4
:1024100000000000000000344C8484844C34040428
:1024200006000000000000B0C8848484C8B080802A
:10243000800000000000003844828282443800009E
:1024400000000000000000B0C88484848484000080
:1024500000000000000000ACD29292929292000024
:1024600000000000C040404040404040404000006C
:10247000000000008080808890A0C0A090880000AC
:10248000000000000010003010101010101010900C
:1024900060000000004000404040404040400000DC
:1024A00000000000808080B0C884848484840000A0
:1024B00000000000000000304C8484844C34040888
:1024C000700000003048404040E040404040000084
:1024D00000000000000000384484F8804438000008
:1024E00000000000000404344C8484844C34000058
:1024F0000000000000000038448080804438000064
:1025000000000000008080B0C8848484C8B000004F
:1025100000000000000000700804748C8C7400003F
:1025200000000000404040200000000000000000CB
:10253000000000000000000000000000000000FF9C
:10254000000000000000000000000000000000008B
:1025500000001028440000000000000000000000FF
:10256000000000000000000000000000000000006B
:10257000000000E020202020202020202020E0005B
:102580000000000404080810102020404080800053
:10259000000000E080808080808080808080E0007B
:1025A00000000000FE0204081010204080FE000021
:1025B00000000000828282442810101010100000D9
:1025C000000000008282442810102844828200000B
:1025D000000000000000008080808080808880886B
:1025E0008049005500550022002200000000000034
:1025F00000000000828282824444282810100000DB
:10260000000000008282828282828282443800003E
:1026100000000000FE10101010101010101000002C
:102620000000000038448280601C028244380000B0
:1026300000000000F884828284F890888482000080
:102640000000000038448282828282824438080678
:1026500000000000F88482828284F880808000007C
:102660000000000038448282828282824438000066
:1026700000000000C2C2A2A292928A8A868600004E
:1026800000000000000000C180C180A280A28094F0
:102690008094808880888080808080000000000096
:1026A00000000000808080808080808080FC0000AE
:1026B00000000000848890A0C0A090888482000060
:1026C00000000000020202020202028244380000FE
:1026D00000000000E04040404040404040E000003A
:1026E0000000000084848484FC848484848400004A
:1026F000000000003C428080809C8282423C0000BE
:1027000000000000FE808080F880808080800000D3
:1027100000000000FE808080FC80808080FE000041
:1027200000000000F88482828282828284F80000A5
:10273000000000003C42808080808080423C00009D
:1027400000000000F8848284F884828284F800000B
:10275000000000001010282844447C82828200007F
:10276000000000003C4299A5A5A5A59E403E0000A2
:10277000000000003844820204081010001000001D
:102780000000000000804020100810204080000061
:102790000000000000000000F800F8000000000049
:1027A00000000000000810204080402010080000B9
:1027B00000000000000000C0C000C0C04080000059
:1027C00000000000000000C0C000C0C00000000009
:1027D0000000000038448282463A02020478000079
:1027E00000000000384482443844828244380000AB
:1027F000000000007E02020404080810101000000F
:10280000000000003C408080B8C482824438000050
:1028100000000000FC808080F80402028478000040
:1028200000000000040C14244484FE04040400008E
:10283000000000007884020438040202847800005A
:1028400000000000384482020418204080FE00008E
:10285000000000001030501010101010107C00000C
:1028600000000000384444828282824444380000E0
:102870000000000404080810102020404080800060
:10288000000000000000000000000000C0C00000C8
:10289000000000000000000000F800000000000040
:1028A000000000000000000000000000C0C04080E8
:1028B000000000000000002020F8202000000000A0
:1028C00000000000001092543854921000000000E4
:1028D0000000C020100808040404040408081020A4
:1028E000C0000C102040408080808080404020103C
:1028F0000C0000404040800000000000000000008C
:1029000000000000205088885020528C8C730000FA
:102910000000000061919264081026498986000039
:10292000000000003C4240407040704040FE00000B
:1029300000000000242424FF2424FF242424000079
:10294000000000A0A0A000000000000000000000A7
:102950000000000040404040404040400040000037
:102960000000000000000000000000000000000067
:10297000000C0C0C0C0C0C0C0C0C0C0C0C0C0C0CA3
:102980000C202020202020202020200C0C0C0C0CBF
:102990000C0C0C0C0C0C0C0C0C0C0C0C0C0C0C0C77
:1029A0000C0C0C0C0C0C0C0C0C0C0C0C0C0C0C0C67
:1029B0000C0C0C0C0C0C0C0C0C0C0C0C0C0C0C0C57
:1029C0000C0C0C0C0C0C0C0C0C0C0C0C0C0C0C0C47
:1029D0000C530B530B530B530B530B530B530B5306
:1029E0000B530B530B530B530B530B530B450B5305
:1029F0000B9C0A4F0AE4097B09000999080C08B6E8
:102A000007030776065E06530B530B530B530B530A
:102A10000B530B530B530B530B530B530B530B53C6
:102A20000B530B530B530B530B530B530B530B53B6
:102A30000B530B530B530B530B530B530B530B53A6
:102A40000B530B530B530B530B530B530B530B5396
:102A50000B530B530B530B530B530B530B530B5386
:102A60000B530B530B530B530B530B530B530B5376
:102A70000B530B530B530B530B530B530B530B5366
:102A80000B530B530B530B530B530B530B530B5356
:102A90000B0C0C0C0C0C0C0C0C0C0C0C0C0C110F6F
:102AA0000C1B1B1B1B1B1B1B1B1B1B0F0C0C0C0CCD
:102AB0000C0C0C0C0C0C0C0C0C0C0C0C0C0C0C0C56
:102AC0000C0C0C0C0C0C0C0C0C0C0C0C0C0C0C0C46
:102AD0000C0C1B0C0C0C0C0C0C0C0C0C0C0C2A0C09
:102AE0000C1D0C0C0C0C0C0C0C0C0C0C0C070C0C1A
:102AF0000C2511251125112511251125112511252B
:102B00001125112511251125112511171108112540
:102B10001185103810DF0F780F130FB40E390EF235
:102B20000D770DFC0CE40C2511251125112511251F
:102B300011251125112511251125112511251125E5
:102B400011251125112511251125112511251125D5
:102B500011251125112511251125112511251125C5
:102B600011251125112511251125112511251125B5
:102B7000112511840C25112511251125112511254B
:102B80001125112511251125112511DD0B251125E3
:102B900011580B2511251125112511251125112558
:102BA0001125112511251125112511251125112575
:102BB00011050808130E15110608080C0A07080766
:102BC000080E0E0E0E0E0E0E0E0E0E07070E090E3E
:102BD0000D1910111212100F1312060D110D1512EE
:102BE00013101311100E120F170F1010090D090CEE
:102BF0000D090E0F0D0F0E080F0F06060C06160F0F
:102C00000F0F0F080C070E0C120D0D0C0D0D0D0FF4
:102C1000012F230E23F022AE2281222322DE21D196
:102C200021A0216F214F213E212F212A212321FA8A
:102C300020BD209A206F203E200D20DE1FA51F8280
:102C40001F491F101F031FEE1EDA1ED11EBD1E944A
:102C50001E1D1EDE1DA11D691D271D021DDD1C9DE3
:102C60001C581C331C061CBF1B9A1B1E1BC11A7F41
:102C70001A4E1A051AC4198F196C192619E318630C
:102C8000182018EB17C61797176417351721171C4C
:102C9000170217D7169816731634160F16EA15A3CF
:102CA00015641543151615DD14B814671432140590
:102CB00014C61387136A1347132413EF12C0126646
:102CC000123712F811DD11AA11771144112B112AB4
:102CD0001100000000003E5B4F5B3E3E6B4F6B3EC1
:102CE0001C3E7C3E1C183C7E3C181C577D571C1C0F
:102CF0005E7F5E1C00183C1800FFE7C3E7FF00186A
:102D0000241800FFE7DBE7FF30483A060E26297952
:102D10002926407F050507407F05253F5A3CE73CB3
:102D20005A7F3E1C1C08081C1C3E7F14227F221464
:102D30005F5F005F5F06097F017F006689956A60BB
:102D40006060606094A2FFA29408047E04081020D2
:102D50007E201008082A1C08081C2A08081E1010CB
:102D600010100C1E0C1E0C30383E3830060E3E0E75
:102D700006000000000000005F00000007000700E0
:102D8000147F147F14242A7F2A12231308646236C6
:102D9000495620500008070300001C224100004152
:102DA000221C002A1C7F1C2A08083E08080080708C
:102DB00030000808080808000060600020100804BF
:102DC000023E5149453E00427F4000724949494612
:102DD0002141494D331814127F1027454545393C90
:102DE0004A4949314121110907364949493646497D
:102DF00049291E000014000000403400000008149F
:102E00002241141414141400412214080201590917
:102E1000063E415D594E7C1211127C7F494949366C
:102E20003E414141227F4141413E7F494949417FE5
:102E3000090909013E414151737F0808087F00419B
:102E40007F41002040413F017F081422417F4040E4
:102E500040407F021C027F7F0408107F3E414141B9
:102E60003E7F090909063E4151215E7F0919294625
:102E7000264949493203017F01033F4040403F1F3B
:102E80002040201F3F4038403F6314081463030470
:102E90007804036159494D43007F414141020408D0
:102EA0001020004141417F040201020440404040A3
:102EB00040000307080020545478407F28444438D9
:102EC0003844444428384444287F38545454180023
:102ED000087E090218A4A49C787F080404780044A2
:102EE0007D40002040403D007F1028440000417F8D
:102EF00040007C047804787C080404783844444416
:102F000038FC1824241818242418FC7C080404080D
:102F1000485454542404043F44243C4040207C1C26
:102F20002040201C3C4030403C44281028444C9019
:102F300090907C4464544C44000836410000007773
:102F40000000004136080002010204023C2623264C
:102F50003C1EA1A161123A4040207A385454555980
:102F600021555579412154547841215554784020B8
:102F7000545579400C1E52721239555555593954D1
:102F800054545939555454580000457C4100024569
:102F90007D420001457C40F0292429F0F0282528B5
:102FA000F07C545545002054547C547C0A097F49D8
:102FB00032494949323248484832324A4848303A20
:102FC0004141217A3A42402078009DA0A07D3944B9
:102FD0004444393D4040403D3C24FF2424487E4940
:102FE00043662B2FFC2F2BFF0929F620C0887E0972
:102FF0000320545479410000447D413048484A320E
:10300000384040227A007A0A0A727D0D19317D26F5
:1030100029292F28262929292630484D40203808DB
:1030200008080808080808382F10C8ACBA2F10285C
:1030300034FA00007B000008142A142222142A14F7
:1030400008AA005500AAAA55AA55AA000000FF0028
:10305000101010FF00141414FF001010FF00FF10D8
:1030600010F010F0141414FC001414F700FF00000A
:10307000FF00FF1414F404FC141417101F10101F89
:10308000101F1414141F00101010F0000000001F77
:10309000101010101F10101010F010000000FF1082
:1030A0001010101010101010FF10000000FF14007E
:1030B00000FF00FF00001F10170000FC04F41414B0
:1030C0001710171414F404F40000FF00F71414147C
:1030D00014141414F700F7141414171410101F10FC
:1030E0001F141414F4141010F010F000001F101F1F
:1030F0000000001F14000000FC140000F010F0108D
:1031000010FF10FF141414FF141010101F00000003
:1031100000F010FFFFFFFFFFF0F0F0F0F0FFFFFF07
:103120000000000000FFFF0F0F0F0F0F384444385E
:10313000447C2A2A3E147E02020606027E027E0299
:1031400063554941633844443C04407E201E2006B8
:10315000027E020299A5E7A5991C2A492A1C4C72F5
:1031600001724C304A4D4D303048784830BC625A7C
:10317000463D3E494949007E0101017E2A2A2A2A0C
:103180002A44445F444440514A444040444A5140E8
:103190000000FF0103E080FF000008086B6B0836A9
:1031A00012362436060F090F06000018180000001A
:1031B0001010003040FF0101001F01011E00191D09
:1031C0001712003C3C3C3C000000000061295129E2
:1031D00041293129212911290129F128E128D12862
:1031E000C128B128A1289128812871286128512857
:1031F00041283128212811280128F127E127D1274A
:10320000C127B127A127912781277127612751273E
:1032100041273127212711270127F126E126D12631
:10322000C126B126A1268126712661265126412676
:103230003126212611260126F125D125C125B125CA
:10324000A12591258125712551253125212511257E
:103250000125F124E124D124C124B124A124912405
:1032600081247124612451244124312421241124F6
:103270000124F123E123D123C123B123A1239123ED
:103280008123712361235123412331230000000056
:10329000000000000008CC31B9321000000000002E
:1032A000112CB12B1A0000000000F12A912A30D114
:1032B00029712930000000000006030409080909EB
:1032C0000307070806030605070808080808080892
:1032D000080808030306060608090808080808087D
:1032E0000808040808070A08080808080808080861
:1032F0000A08080804070407090407070707070660
:103300000707040506040807080708060605070856
:10331000080607070503050806000021002400270A
:10332000002A002D003000330001010000040107D5
:10333000010A0100002200250028002B002E003188
:1033400000340002010000050108010B010505051C
:1033500005070508080808020202020A0A0808040C
:10336000040404010101010101010103030303033A
:10337000030303040707070C0C0C0C0C0C0C0C02C9
:1033800002020206060606060606060B0B0B0B0BD0
:103390000B0B0B01021020200808102040102040C9
:1033A0008002010201080402010102040810204009
:1033B0008080402010080402018004020180402027
:1033C0001008040201080402010102040810204050
:1033D00080010204081020408000000A0B02090C42
:1033E0000D0E0807030401000000000000000000AB
:1033F00000000000000000000000000000000000CD
:103400000000000000121110000000000000000089
:1034100000000000000000000000000000000000AC
:103420006E3A6D3A11241FBECFEFD1E2DEBFCDBFA1
:1034300000E00CBF13E0A0E0B2E0EAEBF5E800E04A
:103440000BBF02C007900D92AE32B107D9F726E04C
:10345000AEE2B3E001C01D92A634B207E1F71AE173
:10346000C1E1DAE100E006C021970109802FFE01E9
:103470000E944840C031D10780E00807A9F70E94A8
:10348000D6340C94CB420C94000080913F03909171
:103490004003089527EA32E0FC0131832083409104
:1034A0003B0350913C0360913D0370913E03428386
:1034B00053836483758308950F931F93CF93DF9392
:1034C000EC01E881F9810084F185E02D19958C01EA
:1034D0001016110654F4E881F9810284F385E02D79
:1034E000CE01199501501109F3CFDF91CF911F91B2
:1034F0000F910895DC01ED91FC910084F185E02DA0
:1035000019958FEF9FEF0895DC01ED91FC910084F8
:10351000F185E02D1994CF93DF931F92CDB7DEB7DD
:103520006983DC01ED91FC910280F381E02D41E0A3
:1035300050E0BE016F5F7F4F19950F90DF91CF91E3
:10354000089581E090E00895DC01ED91FC91048CF8
:10355000F58DE02D199480E00895089580E090E0C5
:10356000089508958F929F92AF92BF92CF92DF926B
:10357000EF92FF920F931F93CF93DF931F921F92AF
:10358000CDB7DEB77C018A01DC01ED91FC910084AE
:10359000F185E02D69837A83199569817A81892B78
:1035A00019F48FEF9FEF58C0F701948580913A038B
:1035B000981350C08091360390913703A09138033F
:1035C000B09139034801A12CB12C88159905AA05A1
:1035D000BB050CF48C016B017B01E00EF11ECE14D7
:1035E000DF04B1F10E9480344B015C0180919D03A6
:1035F00090919E03DC01ED91FC910284F385E02D16
:10360000199597FF0EC00E948034DC01CB01881908
:103610009909AA09BB09883E9340A105B10530F379
:10362000C0CFD6018D936D01809136039091370301
:10363000A0913803B09139030197A109B109809392
:10364000360390933703A0933803B0933903C7CF61
:10365000C80102C080E090E00F900F90DF91CF9101
:103660001F910F91FF90EF90DF90CF90BF90AF90A0
:103670009F908F900895EF92FF920F931F93CF9397
:10368000DF93CDB7DEB764970FB6F894DEBF0FBEF9
:10369000CDBF8C01FB0185811F928F9384811F9286
:1036A0008F9383811F928F9382811F928F9388E5DE
:1036B00092E09F938F939E012F5F3F4F79013F933D
:1036C0002F934B8B5C8B0E94C43BD801ED91FC91F6
:1036D0000688F789E02D4B895C89B701C8011995E7
:1036E0000FB6F894DEBF0FBECDBF64960FB6F89448
:1036F000DEBF0FBECDBFDF91CF911F910F91FF9025
:10370000EF900895CF93DF93FC0124852F3F69F458
:10371000A8E0B2E083E090E0DE91CE91219611F432
:10372000282F02C00197C0F72487C485CF3F91F0AE
:10373000508B4787CF0141960E94B5428C2F90E075
:10374000FC01EE0FFF1FE050FE4F9183808381E06C
:1037500090E002C080E090E0DF91CF9108958F92D9
:103760009F92AF92BF92CF92DF92FF920F931F93DF
:10377000CF93DF93DC011C96FC90BFEFFB1609F49E
:1037800044C18091360390913703A0913803B091E2
:103790003903181619061A061B064CF420913A0331
:1037A0002F1511F0211103C0382F292F2AC1809124
:1037B0009D0390919E03DC01ED91FC910084F185C5
:1037C000E02D1995892B19F430E020E01AC1009101
:1037D0009D0310919E03C0E0D0E00E948034F80168
:1037E0006087718782879387D801ED91FC9102846D
:1037F000F385E02DC801199597FD0BC0FE01E15539
:10380000FD4F2081022E000C330B82179307D1F459
:103810004CC00E948034F80180849184A284B384D7
:10382000DC01CB0188199909AA09BB09848095801C
:10383000A680B78088159905AA05BB05A8F28FEF69
:103840009FEF3AC0209749F260EB72E09E01215051
:103850003109F901E155FD4F4081042E000C550B53
:1038600084179507F1F42115310509F4B6CFEFEA75
:10387000F2E040E050E0B1906B01C40ED51ED601DD
:10388000DC90BD1441F04217530709F4A6CF6F5FD7
:103890007F4FE901DBCF4F5F5F4F4217530758F36C
:1038A000F2CF2115310599F796CF2196C530D10574
:1038B00009F093CF80E090E0892B09F085CF8091CB
:1038C0009D0390919E030E94C32A60933A038091C6
:1038D0009D0390919E03DC01ED91FC910284F385A0
:1038E000E02D199580919D0390919E030E94C32A1B
:1038F00060933603709337038093380390933903B2
:1039000080919D0390919E03DC01ED91FC910284D6
:10391000F385E02D199580919D0390919E030E945F
:10392000C32A60933B0380919D0390919E03DC0129
:10393000ED91FC910284F385E02D199580919D0312
:1039400090919E030E94C32A60933C0380919D0343
:1039500090919E03DC01ED91FC910284F385E02DB2
:10396000199580919D0390919E030E94C32A6093B4
:103970003D0380919D0390919E03DC01ED91FC91AC
:103980000284F385E02D199580919D0390919E030B
:103990000E94C32A60933E0380919D0390919E03F1
:1039A000DC01ED91FC910284F385E02D1995809165
:1039B0009D0390919E03DC01ED91FC910284F385BF
:1039C000E02D199580919D0390919E030E94C32A3A
:1039D0007093400360933F0380919D0390919E03F9
:1039E000DC01ED91FC910284F385E02D1995809125
:1039F0003A038F1511F0F110E7CE30913603209184
:103A00003703832F922F97FF02C080E090E0DF9171
:103A1000CF911F910F91FF90DF90CF90BF90AF900B
:103A20009F908F9008950C941142FC018289938994
:103A30006817790708F08EC0848995894817590757
:103A400008F088C02C98868D978D8617970709F403
:103A50002BC0809102018F7D809302018AE28EBD8E
:103A60000000009601D001C00895778F668F809185
:103A700002018062809302017EBD02D001D001C0AC
:103A8000089500006EBD02D001D001C0089500006D
:103A90007EBD02D001D001C0089500006EBD0000BF
:103AA000009601D001C00895848D958D84179507E7
:103AB00009F42CC0809102018F7D809302018BE27A
:103AC0008EBD0000009601D001C00895558F448F2F
:103AD000809102018062809302015EBD02D001D01C
:103AE00001C0089500004EBD02D001D001C008956C
:103AF00000005EBD02D001D001C0089500004EBD9F
:103B000000000096009601D001C008958091020146
:103B10008F7D809302018CE28EBD00960096009608
:103B200001D001C00895809102018062809302015A
:103B30003EBD00960096009601D001C0089575879D
:103B400064872EBD0000009601D001C008955787FC
:103B500046872C9A08950F931F93FC0180910201D0
:103B60008F7D809302012C988AE28EBD009600968C
:103B7000009601D001C00895809102018062809377
:103B800002017EBD0000009601D001C008958FEFB4
:103B90009FEF978F868F6EBD0000009601D001C009
:103BA0000895848595852817390781F03EBD00006A
:103BB000009601D001C008950000358724872EBDEE
:103BC00000000096009601D001C008958091020186
:103BD0008F7D809302018BE28EBD00960096009649
:103BE00001D001C00895809102018062809302019A
:103BF0005EBD0000009601D001C008958FEF9FEFD9
:103C0000958F848F4EBD0000009601D001C00895AD
:103C1000868597850817190781F01EBD000000965C
:103C200001D001C008950000178706870EBD00006F
:103C30000096009601D001C00895809102018F7D09
:103C4000809302018CE28EBD00000096009601D0A8
:103C500001C00895809102018062809302011F914A
:103C60000F910895CF92DF92EF92FF920F931F93DF
:103C7000CF93DF936901E8018A010C0F1D1F0150EA
:103C80001109FB01E20FF31F9F01215031090E942E
:103C9000AB1D219790F0C601009771F0FEBC02D0D9
:103CA00001D001C008950000EEBC0096009601D03E
:103CB00001C00895019791F7ECCF2C9ADF91CF9135
:103CC0001F910F91FF90EF90DF90CF90089580911A
:103CD0009D0390919E03DC01ED91FC910084F185A0
:103CE000E02D19951816190664F480919D039091A2
:103CF0009E03DC01ED91FC910284F385E02D199582
:103D0000E6CF08953F924F925F926F927F928F928B
:103D10009F92AF92BF92CF92DF92EF92FF920F935A
:103D20001F93CF93DF936C015B01342E8091CC0500
:103D30009091CD059093D1058093D0050E94803459
:103D40002B013C01CFEFDFEFE12CF12C0E948034FE
:103D5000DC01CB0184199509A609B7098C159D05CD
:103D6000AE05BF0508F05DC0CF3FFFEFDF0709F0EC
:103D700058C080919D0390919E03DC01ED91FC91D0
:103D80000084F185E02D1995892B01F380919D0325
:103D900090919E03DC01ED91FC910284F385E02D6E
:103DA0001995E091D005F091D10580838091D005DF
:103DB0009091D10501969093D1058093D0052091E3
:103DC000CE053091CF058217930740F08091CC0546
:103DD0009091CD059093D1058093D005A114B104A5
:103DE00039F0C5010E94622A882311F0C5E0D0E0B5
:103DF000332009F4ABCF85E2882E82E0982E00E0D4
:103E000010E0F401819191914F010E94622A811189
:103E100006C00F5F1F4F0530110599F797CFE801D6
:103E200095CF0E948034DC01CB0184199509A60945
:103E3000B7098C159D05AE05BF0550F085EB92E0E6
:103E40000E94183360EF72E08DEB94E00E94D13055
:103E5000CE01DF91CF911F910F91FF90EF90DF90F6
:103E6000CF90BF90AF909F908F907F906F905F901A
:103E70004F903F900895CF92DF92EF92FF920F9371
:103E80001F93CF93DF93EC01E881F9810084F185E2
:103E9000E02D1995892B09F4A8C0CC8580913A03AF
:103EA000C813A3C00E9480346B017C0180919D03E4
:103EB00090919E03DC01ED91FC910084F185E02D51
:103EC0001995892B09F45DC080919D0390919E0303
:103ED000DC01ED91FC910284F385E02D19958C01B4
:103EE0008091360390913703A0913803B091390344
:103EF0000197A109B1098093360390933703A093EA
:103F00003803B0933903892B8A2B8B2B09F06AC0B5
:103F100065E070E080E090E00E94463480919D036F
:103F200090919E03DC01ED91FC910084F185E02DE0
:103F30001995892B09F456C080919D0390919E0399
:103F4000DC01ED91FC910484F585E02D1995D0E01C
:103F5000E0968C179D0709F045C040E060EC72E0E8
:103F600084EF91E00E94821E0597E1F185EB92E0DB
:103F70000E9418336CEB72E08DEB94E00E94D1301C
:103F800031C00E948034DC01CB018C199D09AE093F
:103F9000BF09803D9740A105B10508F487CF85EBA7
:103FA00092E00E94183363EB72E08DEB94E00E9484
:103FB00084308BE093E00E94183360913603709157
:103FC000370380913803909139030E942B2A109275
:103FD000360310923703109238031092390310926F
:103FE0003A0303C0C801992702C08FEF9FEFDF910A
:103FF000CF911F910F91FF90EF90DF90CF90089598
:10400000CF92DF92EF92FF920F931F93CF93DF93A4
:10401000CDB7DEB7A8970FB6F894DEBF0FBECDBF01
:10402000FC016B018A0180898F9387858F93CF0173
:1040300041969F938F931F934F9384851F928F93E5
:104040008AE992E09F938F939E012F5F3F4F790102
:104050003F932F930E94C43BB70180919D039091A1
:104060009E030E94BD3040E06AEC72E088EE93E06F
:104070000E94821E0FB6F894DEBF0FBECDBF05971B
:1040800039F085EB92E00E9418336FE772E01CC0B4
:1040900080919D0390919E03DC01ED91FC91028043
:1040A000F381E02DA801B601199541E060E070E0D0
:1040B00080ED97E00E94821E039769F085EB92E005
:1040C0000E94183364E672E08DEB94E00E94D130D8
:1040D00080E090E001C0C801A8960FB6F894DEBF5A
:1040E0000FBECDBFDF91CF911F910F91FF90EF9049
:1040F000DF90CF900895CF93DF93CDB7DEB7C85C44
:10410000D1090FB6F894DEBF0FBECDBF9E012E526F
:104110003F4FC253DF4F48815981CE5CD04068EC9D
:1041200070E0CE0101960E94F43B81E00E94671E80
:10413000BE016F5F7F4F80919D0390919E030E940F
:10414000BD3041E060E070E0C053DF4F888199816D
:10415000C05DD0400E94821EC853DF4F0FB6F89456
:10416000DEBF0FBECDBFDF91CF910895CF93DF9318
:10417000FC0124852F3F69F1EC010190F081E02DD5
:104180000680F781E02D19958C851F928F938FE023
:104190008F9380EA8F9389E492E09F938F930E949C
:1041A0007B208C8590E0880F991FFC01E050FE4F2A
:1041B0002FEF3FEF31832083FC01E25DFC4F118242
:1041C00010828FEF8C870F900F900F900F900F90B1
:1041D0000F90DF91CF910895EF92FF920F931F936D
:1041E000CF93DF93E8E0F2E0C3E0D0E03291229198
:1041F0002F3F3F4F79F5E72EF62E8C017F936F937B
:104200008CEC92E09F938F93DF93CF9383E18F9316
:1042100088E88F9388E292E09F938F930E947B209F
:10422000FE01EE0FFF1FDF01A050BE4FCD93DC93C8
:10423000E25DFC4FF082E182F801C487F586E686F4
:104240008DB79EB70A960FB6F8949EBF0FBE8DBF6E
:1042500081E003C0219750F680E0DF91CF911F915C
:104260000F91FF90EF9008954F925F926F927F921F
:104270008F929F92AF92BF92CF92DF92EF92FF9276
:104280000F931F93CF93DF931F921F92CDB7DEB78B
:104290004C015A01790138014DB65EB6CB016983F4
:1042A0007A830E94BB3B01962DB73EB7281B390B82
:1042B0000FB6F8943EBF0FBE2DBF8DB79EB70196C7
:1042C0006C0169817A810E94B43BC5010E94BB3BAD
:1042D0000196EDB7FEB7E81BF90B0FB6F894FEBFD9
:1042E0000FBEEDBF0DB71EB70F5F1F4FB501C80161
:1042F0000E94B43BF701108281E00E94671EB40166
:1043000080919D0390919E030E94D13041E0B601BF
:1043100088EE93E00E94821E8530910509F047C027
:104320008091CC059091CD059093D1058093D005D7
:104330004091CA055091CB054F5F5F4F60E070E040
:104340000E94AE4241E0B80184EF91E00E94821EDB
:10435000059731F5A30141505109F8010190002062
:10436000E9F73197E01BF10B6091CC057091CD0519
:104370008091D0059091D105861B970B8E1B9F0BCA
:104380004817590708F0AC01C7010E94BC4241E040
:1043900060E070E080ED97E00E94821E81E014C032
:1043A00085EB92E00E94183361ED72E008C005973A
:1043B00050F085EB92E00E94183363EE72E08DEBD3
:1043C00094E00E94D13080E00FB6F8945EBE0FBE3C
:1043D0004DBE0F900F90DF91CF911F910F91FF90E5
:1043E000EF90DF90CF90BF90AF909F908F907F9095
:1043F0006F905F904F90089508950E94A9420F9387
:104400001F93CF93DF93EC010E94803468877987F4
:104410008A879B87E881F9810484F585E02DCE01A8
:10442000199597FF17C00E948034088519852A8541
:104430003B85DC01CB01801B910BA20BB30B0C81E4
:104440001D812E813F8180179107A207B30710F3CA
:104450008FEF9FEFDF91CF911F910F9108954F92B2
:104460005F926F927F92EF92FF920F931F93CF9381
:10447000DF93CDB7DEB7A1970FB6F894DEBF0FBEBE
:10448000CDBF7C01FA01CB0119A2223008F42AE049
:104490008E010F5D1F4F422E512C612C712CBF01DC
:1044A000A30192010E94F83FF901CA0101501109CC
:1044B0006A3014F4605D01C0695CD8016C93232BF1
:1044C000242B252B61F7B801C7010E94A830A196C3
:1044D0000FB6F894DEBF0FBECDBFDF91CF911F9115
:1044E0000F91FF90EF907F906F905F904F900895A5
:1044F000FC016783089540E060E80C9481322F92BC
:104500003F924F925F926F927F928F929F92AF9263
:10451000BF92CF92DF92EF92FF920F931F93CF93B0
:10452000DF93CDB7DEB766970FB6F894DEBF0FBE48
:10453000CDBF6D3009F4E2C4DC0190967C91462F2A
:1045400050E0723059F4FA01E756FD4C249130E006
:104550002A5F3F4F287FE0E1F0E01BC0E5E07E9F4F
:10456000D0011124FD01E257FD4C25913491FA014F
:10457000B097E20FF31F2491FD01E057FD4CE49149
:10458000713019F030E0F0E004C0E8E0F0E026E03F
:1045900030E0DC019196BC91BF87CB2ED12CEC9DF5
:1045A000D001ED9DB00DFC9DB00D1124FC01E28405
:1045B000F3846A3039F4AE0DBF1DB387A28711862C
:1045C00010869CC4FC0114A11123B1F02C9D800124
:1045D0002D9D100D3C9D100D112420853185200F3F
:1045E000311F028913892017310730F0AE0DBF1D2E
:1045F000B387A287118610861C01272F30E0DC01CB
:104600001A964D905C901B971896ED91FC91199716
:10461000F887EF8358968D919C9159979C878B874B
:104620005696AD90BC9057972130310509F0F3C0F4
:1046300052968D919C915397E817F9070CF0E3C0BF
:1046400054968D919C915597481659060CF0DBC0F5
:10465000CF01BF85A6E0BA9F800D911D11241816C9
:1046600019060CF0D0C0C60173E0880F991F7A9527
:10467000E1F7840D951D181619060CF0C4C0E1E091
:10468000E98B2B853C852A153B0509F4198A75E0D1
:10469000679FA00111245E8B4D8B8F85813009F0BF
:1046A00055C09989992309F451C08201085F1F4FB1
:1046B0002F8138852B5F3F4FA2016F817885C10123
:1046C0000E94AB1D9E012F5F3F4FD90180E090E01B
:1046D000ED89FE89E80FF91FEF52F34DE491ED9358
:1046E000019685309105A1F71E826B2D5C8598E0BF
:1046F00081E075E0720FF9014191482351F00DB44A
:1047000007FEFDCF6EBD00000DB407FEFDCFAEBCB1
:104710000AC00DB407FEFDCF5EBD00000DB407FE5C
:10472000FDCFAB85AEBD7E13E7CF880F0DB407FE7E
:10473000FDCF5EBD0DB407FEFDCFBB85BEBD915064
:10474000D1F60DB407FEFDCF2C9A5DC0EF81F88540
:10475000FE87ED87812C912CF5E08F16910449F0AE
:10476000ED89FE89E80DF91DEF52F34D049109879B
:1047700001C019862F85213031F5720118E06F8054
:104780007884680C791C398530FF06C09501A70133
:10479000B301C1010E94151D4985469549871150F5
:1047A0005FEFE51AF50A1111EECF6FEF861A960A40
:1047B0008D859E858C0D9D1D9E878D8796E0891623
:1047C000910451F620C03201A8E0AB8BB985B0FF4F
:1047D00002C0750105C0E989EE2351F0EB84FC8429
:1047E00086019601A3016D857E85C1010E94321E5E
:1047F000F985F695F9870B8901500B8B6C0C7D1CA4
:104800000111E4CFD2CFD10191968C91B6E08B9F6C
:10481000C001112468C340525109CA01880F991F71
:104820002230310599F484539E4CFC0165917491BA
:104830007E876D87FA01E754FD4C4491842F90E008
:104840009A87898740E1642E712C25C0E5E0E29FBC
:10485000B001E39F700D1124FB01E457FD4CA591BD
:10486000B4918A0F9B1FFC01A591B491BE87AD87BF
:10487000FB01E257FD4C85919491FC01E40FF51F7B
:104880004491E42FF0E0FA87E987FB01E057FD4C03
:10489000E4916E2E712CAB8ABD8A2230310509F06D
:1048A000F7C129853A852C9DC0012D9D900D3C9D19
:1048B000900D11244F815885480F591FD1015296F0
:1048C0002D913C915397421753070CF00CC38985E7
:1048D0009A850696FC0123E0F595E7952A95E1F780
:1048E000FA8BE98B2B853C85A216B30621F03F8518
:1048F000313009F475C11C8A1B8A188A1F864F85BE
:1049000058894615570509F4E4C2D1015896ED902F
:10491000FC90599756968D919C9157978E159F05AF
:1049200091F091960C9110E0E985FA85E09F900155
:10493000E19F300DF09F300D1124A2016F81788529
:10494000C1010E94321E2B893C894D855E85240F52
:10495000351F3E8B2D8BAF80B8841C861B864B8504
:104960005C8569897A894617570709F428C1EB8560
:10497000FC856D897E89E60FF71F9490992009F4D4
:1049800014C1D10191962C919197213009F066C004
:1049900097FE09C056962D913C915797A201B501FB
:1049A000C1010E94151D96FE0AC0F10126893789B2
:1049B000A201B5016F5F7F4FC1010E94151D95FED9
:1049C0000CC0D10156962D913C915797A201B5018B
:1049D0006E5F7F4FC1010E94151D94FE0AC0F10158
:1049E00026893789A201B5016D5F7F4FC1010E9401
:1049F000151D93FE0CC0D10156962D913C915797F1
:104A0000A201B5016C5F7F4FC1010E94151D92FE8E
:104A10000AC0F10126893789A201B5016B5F7F4F7A
:104A2000C1010E94151D91FE0CC0D10156962D9119
:104A30003C915797A201B5016A5F7F4FC1010E9467
:104A4000151D90FEB2C0F10126893789A201B5017A
:104A5000695F7F4FC1010E94151DA7C030E0C501ED
:104A60004F815885841B950B829F6001839FD00CDA
:104A7000929FD00C1124C40ED51E97FE0BC0D101FD
:104A80005696ED90FC9057978901A201B601C1019D
:104A90000E94321E96FE0DC0F10121A130E0E68891
:104AA000F788B601620F731F8901A201C1010E943C
:104AB000321E95FE13C0D10191962C91919730E052
:104AC0005696ED90FC905797B901660F771F6C0DC5
:104AD0007D1D8901A201C1010E94321E94FE11C0F8
:104AE000F10181A1282F30E0E688F788B601F3E0D4
:104AF0008F9F600D711D11248901A201C1010E94C7
:104B0000321E93FE15C0D10191968C9191975696C5
:104B1000ED90FC905797282F30E0B601B4E08B9FC2
:104B2000600D711D11248901A201C1010E94321E74
:104B300092FE11C0F10181A1282F30E0E688F788AC
:104B4000B601F5E08F9F600D711D11248901A2014E
:104B5000C1010E94321E91FE15C0D10191968C9127
:104B60009197282F30E05696ED90FC905797B6011C
:104B7000B6E08B9F600D711D11248901A201C10156
:104B80000E94321E90FE11C0F10181A1282F30E059
:104B9000E688F788B601F7E08F9F600D711D11243C
:104BA0008901A201C1010E94321E2B853C852F5F25
:104BB0003F4F3C872B8738E0A30EB11CD0CED101EC
:104BC00091968C91480E511CEF85F8893196F88B9F
:104BD000EF872B893C89260F371F3C8B2B8B8FCE81
:104BE0008201060D171D0150110929893A8983E0B8
:104BF000220F331F8A95E1F76F817885260F371FC3
:104C000021503109A201C1010E94AB1D1C8520E089
:104C100030E040E050E04615570509F435C0AD8559
:104C2000BE85A20FB31F80E090E069897A8986175C
:104C3000970729F1FC01EA0FFB1FE49168E070E09F
:104C4000F0E80F2F0E2359F00DB407FEFDCF0D89AC
:104C50000EBD00000DB407FEFDCF0B8909C00DB4D9
:104C600007FEFDCF1EBD00000DB407FEFDCF0B8576
:104C70000EBDF6956150710921F70196D6CF4F5FB1
:104C80005F4F260F371FC7CF0DB407FEFDCF20C1E2
:104C90001EBC89859A85869D4001879D900C969DB6
:104CA000900C1124D10191968C9191975896ED908A
:104CB000FC90599756962D913C915797813021F44D
:104CC0002E153F0509F0BBC02E153F05B9F090E049
:104CD000869D8001879D100D969D100D1124E985FC
:104CE000FA85E89F9001E99F300DF89F300D11245F
:104CF000A2016F817885C1010E94321ED101919677
:104D0000CC90CC9CB02D1124B98BCA94612C712C01
:104D1000EC2DF0E0F88BEF87681479040CF08BC071
:104D2000ED85FE8584913196FE87ED8787FF7FC0F4
:104D30008F77DD24D394D80ECC20F9F0D101919651
:104D40002C9130E0C30169857A850E943440289F08
:104D50007001299FF00C389FF00C1124EF81F88529
:104D6000EE0EFF1E269F5001279FB00C369FB00C01
:104D70001124A40CB51CDB863BC0C30169857A8570
:104D80000E943440EF80F884E80EF91E5201A60E0E
:104D9000B71EF1CF0DB407FEFDCF0F8518890A0DA0
:104DA0001B1D2F8538892E0D3F1DA501B701C1019F
:104DB0000E94AB1DCC2069F189898150F8F4D101A2
:104DC00091968C9190E0E80EF91EE985FA85E89FAE
:104DD0009001E99F300DF89F300D11244F815885C7
:104DE000240F351FE216F3061CF0A80EB91E7A0137
:104DF0005B8551505B875F3F69F616C00DB407FEB7
:104E0000FDCFFD89FEBD0DB407FEFDCF0B890EBDA4
:104E1000D4CF0DB407FEFDCF2D892EBD0DB407FEF6
:104E2000FDCF3B893EBDCBCF6D0C711C75CF8F5F25
:104E3000680E711C71CF0DB407FEFDCF49C0820111
:104E4000060D171D015011092F81388569857A8556
:104E5000260F371F21503109A2016F817885C101CA
:104E60000E94AB1D181419040CF02FC02D853E852F
:104E70002F5F3F4FED85FE85849187FF0CC08F77B4
:104E80008F5F90E0881A990AD10156964C915697F7
:104E900057965C9107C08F5F90E0881A990AF101DC
:104EA000408D518D009771F05EBD02D001D001C0E0
:104EB000089500004EBD0096009601D001C00895EF
:104EC000019791F73E872D87CDCF0DB407FEFDCF1B
:104ED0002C9AD10191962C91E985FA852E9FC001DB
:104EE0002F9F900D1124D10118962D913C91199767
:104EF000820F931F19969C938E93189781E090E0F0
:104F000066960FB6F894DEBF0FBECDBFDF91CF918E
:104F10001F910F91FF90EF90DF90CF90BF90AF90D7
:104F20009F908F907F906F905F904F903F902F90C9
:104F30000895EF92FF920F931F93CF93DF93EC01AD
:104F40007B018A0143E060E80E948132888599856F
:104F5000009739F0019751F468E770E080E090E045
:104F600009C06FE070E080E090E004C062EC71E0A6
:104F700080E090E00E9446346CEACE010E943D320F
:104F8000F701918380836EEACE010E943D32F801E1
:104F900091838083CE01DF91CF911F910F91FF907C
:104FA000EF900C947B221F93CF93DF93EC0184E16D
:104FB00094E09C838B83109275031092740310927B
:104FC0005103109252031092770311E0109379036A
:104FD0001092780361E084E10E948D3361E085E105
:104FE0000E948D338091B9008E7F8093B9008091AB
:104FF000B9008D7F8093B90088E48093B80085E480
:105000008093BC008D8110935303809350031092C2
:105010005103109252038B819C81DC01ED91FC9134
:105020000190F081E02D6AE019958B819C810E94AE
:10503000742C6D81062E000C770B41E050E08B81C3
:105040009C810E9442338B819C81DC01ED91FC911B
:105050000284F385E02D199580FD10C01E836885BC
:105060007985CE010E9464286A857B85CE010E94E5
:105070004328CE010E947B2281E001C080E0DF91C5
:10508000CF911F9108950F931F93CF93DF93EC015E
:10509000162F072F8E81811103C0CE010E94D327C6
:1050A00043E060E8CE010E9481324885412B61E8EF
:1050B000CE010E9481321A870B87CE01DF91CF91FA
:1050C0001F910F910C947B220F931F93CF93DF932B
:1050D000EC01162F072F8E81811103C0CE010E9493
:1050E000D32743E060E8CE010E9481324A85412BFC
:1050F00061E8CE010E94813218870987CE01DF91D5
:10510000CF911F910F910C947B229CB52091AB0500
:105110002CBD8EBD00000DB407FEFDCF9CBD0895D3
:1051200085ED8093BC008091BC0084FDFCCF109283
:10513000770308954091E103262F30E0240F311DBD
:1051400021323105DCF4209177032430C9F4FC01CD
:1051500080E090E0861758F43091E1032191DC0162
:10516000A154BC4FA30FB11D2C930196F3CF809196
:10517000E103680F6093E10380E0089581E0089502
:1051800082E008950895E091750380917403E81713
:1051900030F4F0E0EC5AFC4F808190E008958FEFFE
:1051A0009FEF08959091750380917403981750F4C0
:1051B000E92FF0E0EC5AFC4F208130E09F5F9093A4
:1051C000750302C02FEF3FEFC9010895809174036A
:1051D00090E020917503821B91090895CF92DF9290
:1051E000EF92FF920F931F93CF93DF937C01262FB3
:1051F000972F8A0180915303882391F0C62FD72FD0
:105200006E01C40ED51ECC15DD0571F06991D70174
:10521000ED91FC910190F081E02DC7011995F3CF3C
:10522000642F822F0E949A28C801DF91CF911F918D
:105230000F91FF90EF90DF90CF900895CF93DF9381
:105240001F92CDB7DEB76983209153032223D1F09B
:1052500020915203203240F021E030E0FC01338302
:10526000228380E090E015C080915103E82FF0E0A8
:10527000E156FC4F998190838F5F80935103809317
:10528000520305C061E0CE0101960E949A2881E098
:1052900090E00F90DF91CF9108954F925F926F92BF
:1052A0007F928F929F92AF92BF92CF92DF92EF92B6
:1052B000FF926B017C01B42E9B01AC010E947741EF
:1052C000882319F069E173E027C026013701E894CB
:1052D00077F82FEF3FEF4FE75FE7C301B2010E947E
:1052E000774181110DC02FEF3FEF4FE75FE7C3011B
:1052F000B2010E94D43E18161CF46DE173E00CC09C
:105300002FEF3FEF4FE75FE4C701B6010E94724104
:10531000181694F461E273E08DEB94E0FF90EF9047
:10532000DF90CF90BF90AF909F908F907F906F90C5
:105330005F904F900C94A8302FEF3FEF4FE75FEC5A
:10534000C701B6010E94D43E87FDE4CF20E030E0E3
:10535000A901C701B6010E94D43E87FF0BC06DE2D0
:105360008DEB94E00E9437304C01F7FAF094F7F897
:10537000F09402C0812C912CA12C60E070E080E0C0
:105380009FE3AB1441F020E030E040E251E40E94A2
:10539000D140A394F6CF9B01AC01C701B6010E9496
:1053A00065402B013C010E9443416B017C010E943E
:1053B000D93E9B01AC01C301B2010E9464402B01A4
:1053C0003C012AE0B701A6018DEB94E00E942F2258
:1053D0007C01E80CF91CBB2039F06EE28DEB94E007
:1053E0000E943730E80EF91EDB2CDD2031F120E081
:1053F00030E040E251E4C301B2010E943A3F2B0188
:105400003C010E9443414B01A12CB12C2AE0B50183
:10541000A4018DEB94E00E942F22E80EF91EC50135
:10542000B4010E94D93E9B01AC01C301B2010E94AC
:1054300064402B013C01DA94D8CFC701FF90EF9074
:10544000DF90CF90BF90AF909F908F907F906F90A4
:105450005F904F900895CF92DF92EF92FF92CF939B
:10546000DF936B017C0197FF16C06DE28DEB94E03A
:105470000E943730EC0144275527BA014C195D09C9
:105480006E097F092AE08DEB94E00E942F227C01B7
:10549000EC0EFD1E08C02AE0AB01BC018DEB94E0D0
:1054A0000E942F227C0167EC72E08DEB94E00E9459
:1054B000A8308E0D9F1DDF91CF91FF90EF90DF9070
:1054C000CF900895FC0101900020E9F731979F01EA
:1054D000281B390BE091D005F091D105E21BF30BAD
:1054E0004091CC055091CD05E417F50730F460915B
:1054F000CA057091CB05E60FF71F280F391F609181
:10550000CE057091CF05DC018217930758F4019600
:10551000BC91A081BA1308C03196E617F70799F736
:10552000FA01F1CF81E0089580E00895CF93DF93F1
:10553000EC0181E00E94671EBE0180919D03909165
:105540009E030E94D13041E060E070E088EE93E07D
:10555000DF91CF910C94821EE2E0F1E090819062A5
:1055600090832C980E9485282C9A08959DB590933D
:10557000AC05E2E0F1E090819F7D90832C980E9441
:1055800085282C9A0895AF92BF92CF92DF92EF9226
:10559000FF921F93CF93DF9300D01F92CDB7DEB75A
:1055A0005C01C5010E94FF21FC0197FD0FC08D32F7
:1055B000910581F0C0970A9768F0D501ED91FC91B3
:1055C0000284F385E02DC5011995EBCF60E070E012
:1055D000CB014AC020E030E0A90110E0E130F10544
:1055E000E9F0ED32F105C9F0CF01C0970A97B0F4A8
:1055F000AAE0B0E00E941A406F01FF0FEE08FF081A
:10560000DC01CB018C0D9D1DAE1DBF1D9C01AD01AC
:10561000205331094109510901C011E0D501ED9133
:10562000FC910284F385E02DC50129833A834B83E5
:105630005C831995C5010E94FF21FC01C097298157
:105640003A814B815C810A9748F2E130F10531F2F1
:10565000112341F066277727CB01621B730B840B64
:10566000950B02C0CA01B9010F900F900F900F90D7
:10567000DF91CF911F91FF90EF90DF90CF90BF907F
:10568000AF9008951F920F920FB60F9211240BB690
:105690000F922F933F934F935F936F937F938F93CB
:1056A0009F93AF93BF93EF93FF938091B900887F4F
:1056B000803609F49CC068F5883209F45BC090F428
:1056C000803109F454C038F4882309F4F6C08830D6
:1056D00009F44DC0F6C0883109F44CC0803209F499
:1056E0005DC0EFC0803409F468C048F4803309F429
:1056F00055C0883309F0E5C080937603D8C0803563
:1057000009F44FC0883509F45DC0883409F0D9C068
:10571000D6C0883909F4C7C0A8F4883709F467C02F
:1057200038F4883609F463C0803709F460C0C9C012
:10573000883809F4B8C0803909F45FC0803809F0AE
:10574000C0C05BC0803B09F486C038F4803A09F4DD
:1057500066C0883A09F47FC0B4C0803C09F4A7C091
:10576000883C09F4A4C0883B09F48AC0AAC080918F
:105770009C0310C090919B0380919A03981770F539
:10578000E0919B0381E08E0F80939B03F0E0E6584D
:10579000FC4F80818093BB0085EC86C080937603AC
:1057A0008EC0E0919B0381E08E0F80939B038091DC
:1057B000BB00F0E0E658FC4F808390919B03809102
:1057C0009A036EC0E0919B0381E08E0F80939B0350
:1057D0008091BB00F0E0E658FC4F80838091790314
:1057E00081116DC081E08093780384EA61C083E019
:1057F0008093770310920504CFCF80910504803207
:1058000008F051C0E091050481E08E0F80930504FB
:105810008091BB00F0E0EB51FC4F8083BDCF85EC65
:105820008093BC001092770380910504803230F49D
:10583000E0910504F0E0EB51FC4F1082609105040B
:1058400070E0E091E303F091E40385EE93E01995B5
:105850001092050436C084E0809377031092E2032F
:105860001092E103E091DF03F091E003199580913C
:10587000E103811105C081E08093E1031092BF0331
:10588000E091E20381E08E0F8093E203F0E0E154C7
:10589000FC4F80818093BB009091E2038091E103F3
:1058A000981708F479CF85E88093BC000AC085EC8E
:1058B0008093BC001092770304C0109276030E947C
:1058C0009028FF91EF91BF91AF919F918F917F9120
:1058D0006F915F914F913F912F910F900BBE0F9061
:1058E0000FBE0F901F901895209152039091500376
:1058F000213208F04AC0809177038111FCCF32E059
:105900003093770331E0309379033FEF30937603A0
:1059100010929B0320939A03AFE9B3E04AE753E068
:10592000FA013E2F341B321718F43D913193F9CF11
:1059300010929C0320919C03990F922B90939C03AF
:1059400090917803913061F41092780390919C03C8
:105950009093BB009091BC0093FDF8CF95EC01C0F3
:1059600095EE9093BC00909177039230E1F3909183
:1059700076039F3F79F080917603803241F08091E9
:105980007603803331F084E005C081E003C082E01B
:1059900001C083E0109251031092520310925303FE
:1059A0000895CF92DF92EF92FF920F931F93CF93C0
:1059B000DF936C017A018B01C0E0D0E0CE15DF05EA
:1059C00089F0D8016D918D01D601ED91FC91019086
:1059D000F081E02DC6011995892B11F47E0102C0DA
:1059E0002196ECCFC701DF91CF911F910F91FF90CE
:1059F000EF90DF90CF900895FC01A089B1898C9140
:105A0000A689B78982FD0FC09C91818D8F5F8F73AE
:105A1000228D821749F0218DDF01A20FB11D5D9605
:105A20009C93818F08958C910895FC01538D448D32
:105A3000252F30E0842F90E0821B930B541710F039
:105A4000CF96089501970895FC01918D828D981746
:105A500061F0828DDF01A80FB11D5D968C91928D52
:105A60009F5F9F73928F90E008958FEF9FEF08954F
:105A7000FC01918D828D981731F0828DE80FF11D18
:105A8000858D90E008958FEF9FEF0895FC01918D33
:105A9000228D892F90E0805C9F4F821B91098F732C
:105AA0009927089580E294E00E94462D21E0892BF9
:105AB00009F420E0822F08958DEB94E00E94462D9A
:105AC00021E0892B09F420E0822F0895FC01848DC8
:105AD000DF01A80FB11DA35ABF4F2C91848D90E018
